:0200000280007C
:10000000A0360720E9380800E5380800E538080080
:10001000E5380800E5380800E53808000000000071
:10002000000000000000000000000000E5380800AB
:10003000E538080000000000E53808007D0A0800E7
:10004000E5380800E5380800E5380800E53808001C
:10005000E5380800E5380800E5380800E53808000C
:10006000E5380800E538080000000000B11E08006F
:10007000C51E0800D91E0800ED1E08000000000083
:10008000000000001D0B0800E5380800E5380800F6
:10009000E5380800E5380800E5380800E5380800CC
:1000A000D106080000000000E5380800E538080027
:1000B000E5380800E5380800E5380800E5380800AC
:1000C000E5380800E5380800E5380800E53808009C
:1000D000E5380800E5380800E5380800E53808008C
:1000E0002D260800E5380800E5380800E538080046
:1000F000E538080010B5054C237833B9044B13B12B
:100100000448AFF300800123237010BDA806072028
:100110000000000028400800084B10B51BB108493A
:100120000848AFF300800848036803B910BD074BC7
:10013000002BFBD0BDE81040184700BF00000000B6
:10014000AC060720284008002840080000000000F6
:1001500008B5034B984202D11820024B984708BDBE
:1001600000800040AD370800436823F470234360EB
:100170004368090401F470210B434360704700BFDA
:1001800010B443F6992301E0013B0ED0046914F04A
:10019000010FF9D08368406810F0020F1CBFC3F351
:1001A000034010700B80002000E0012010BC70475D
:1001B00030B443F6992401E0013C11D0056915F0F3
:1001C000020FF9D0446814F0020F06D0120402F4B2
:1001D000702211430BB141F08071C160002000E03A
:1001E000012030BC704700BF32B100EB8100036BCF
:1001F00043F001030363704700EB8100036B23F0BE
:1002000001030363704700BF32B100EB8100036B51
:1002100043F002030363704700EB8100036B23F09C
:1002200002030363704700BF00EB81010B6B23F0F7
:10023000F0030B630B6B1A430A6370476AB110B487
:10024000144600EB81010B6B23F47F430B630A6BB5
:1002500042EA04220A63002002E04FF0FF307047B8
:1002600010BC704710B400EB8101086B80B20863CA
:100270000C6B44EA036343EA02420A6310BC704712
:100280000F4B994219D84900B2FBF1F2043AFF2A08
:1002900007D9002301335208FF2A03D9072BF9D1CC
:1002A00000E00023110289B21B0403F4E0230B4396
:1002B000D2B21A430261002070470120704700BF8C
:1002C000801A060038B504460D464FF0FF338362AE
:1002D000036A80230360036B082303602023036009
:1002E000042303600A684968054B9847012814BF36
:1002F000002001206B7A012B04BF4023236038BD0E
:10030000810208000A4659B103780129C4BF417827
:1003100041EA0323022A05DD807840EA0320704782
:1003200000207047184670472DE9F041CC68002C3A
:1003300045D00B4605468E68002068604A68120268
:1003400002F4407242F480511A7C120402F4FE025C
:100350000A436A60E86059681846274B9847E86086
:10036000012C04D103232B604FF0010E33E0012355
:100370002B604FF0000E2EE00A462B6A13F4807FAC
:1003800020D1511E0AB3012C06D1BEF1000F2FD18E
:10039000C5F80080E6462BE013F0020F05D02B6B6A
:1003A0003370013C01363A4600E00A46002CE4D1A5
:1003B0002B6A13F0010FFBD02B6ABDE8F0810120FE
:1003C000BDE8F0810520BDE8F0810920BDE8F0819D
:1003D0000520BDE8F0812B6A13F48070F8D143F654
:1003E000972143F698274FF002084FF0010CCAE717
:1003F00013F0020FC0D0D2E70503080070B5CD6836
:10040000002D34D00B4604468E68002060600A7CC4
:10041000120402F4FE015A68120202F440720A4306
:100420006260E06059681846154B9847E060236A9F
:1004300013F4807F04D01CE0236A13F4807F1AD168
:1004400013F0040F03D033786363013D0136002DB0
:10045000F2D1236A13F480700FD113F0040FF8D097
:1004600002232360236A13F0010FFBD070BD01202B
:1004700070BD052070BD052070BD052070BD00BF9A
:100480000503080008B51720094B984709490A4B8E
:100490000B600A4B4B6000224A72094B1A745A6077
:1004A0009A600122DA600748074B984708BD00BFF1
:1004B000AD3708003C14072000BD0105801A060076
:1004C0004814072000000940C502080010B483B09A
:1004D000441E01A9013014F8012FA2F13003DBB250
:1004E000092B01D80B700EE0A2F14103DBB2052B02
:1004F00002D8373A0A7006E0A2F16103DBB2052B9D
:1005000098BF573A0A7001318442E4D19DF8043013
:100510001B01DBB29DF80500184303B010BC704707
:1005200010B582B0084B984702AC04F8010D07489B
:10053000074B9847074908748C600123CB60064835
:10054000064B984702B010BD8514080064140720BC
:10055000CD0408004814072000000940FD030800EE
:1005600010B5084B1C78022C02D9074B984710BDD8
:10057000054B9847054B1855024A13780133137001
:1005800010BD00BF60140720851408006814072000
:1005900010B5ADF5007D04464FF4007200216846A9
:1005A000224B98472278002A3BD0303AD2B2092A0F
:1005B00088BF002036D804E0303AD2B2092A01D9E7
:1005C00008E000230DF803200133DBB214F8012FFB
:1005D000002AF1D100202BB3002210466421032B06
:1005E00005D1D4B21DF8044001FB040013E0022B36
:1005F0000AD1D4B21DF8044004EB840400EB44009B
:10060000013BDBB20132EAE7012B04D1D2B21DF883
:100610000230184406E0013B013213F0FF03DED143
:1006200000E000200DF5007D10BD00BF693C080012
:1006300030B5ADF5017D4FF4007200216846174BCF
:1006400098471748174B9847174B1874C3F808D0AA
:100650001648174B9847B0F5007F02D8124BD86068
:1006600003E04FF40072104BDA600F4D2946114839
:10067000114B984706211148114CA047E96868467C
:10068000A0470A200F4B984708480F4B9847002275
:100690000E4B1A700DF5017D30BD00BF693C08009E
:1006A00064140720CD0408002814072068140720CC
:1006B000910508000000094029030800AC3F08002C
:1006C0009D160800D5150800E909080060140720E8
:1006D000214B1B6913F0010F3CD070B582B0012291
:1006E0001E4B1A600DF106020DF105011A481C4B54
:1006F00098479DF8052032B91A4B1B681BB9012297
:10070000194B1A7024E0174B1B68B3F5007F1AD100
:10071000164B1B7833B1164B1B781BB906211548B5
:10072000154B98470126124B1E700E4D0F4C296831
:100730002046114B98472046104B98479DF80530AE
:1007400023702E6004E00949CA540133054A13603E
:1007500002B070BD704700BF0080004068160720DF
:1007600081010800C80807206D160720C806072069
:100770006C160720B43F08009D160800E909080020
:1007800070B5284B984710B9274B984770BD274B39
:100790001B78002B37D0264B1B78CBB1254B1B7811
:1007A00043B10021234B19700B460A462248234CC3
:1007B000A04770BD224C1D4E21683046214B984702
:1007C00000251B4B1D7030461F4B9847256070BDA0
:1007D000184B1B7843B10021164B19700B460A4683
:1007E0001548164CA04770BD06211848154EB04755
:1007F000134C0E4D21682846B0472846124B9847A7
:100800000023236070BD0B4B1B7853B10C4B1B684E
:100810003BB10021074B19700B460A460648074CAE
:10082000A04770BD2915080081110800C8060720DF
:100830006C1607206D16072000800040B1010800EB
:10084000C80807209D160800E9090800B43F080001
:1008500038B51A4C20461A4B984702232360802350
:100860002360636843F0010363604FF0807323608B
:10087000636843F0100363600E212046114B9847D4
:10088000002211462046104B984700221146204670
:100890000E4B98470022114620460D4B9847A82240
:1008A000002120460B4B98471023F02200212046C0
:1008B000094DA84701236361236038BD00800040D3
:1008C0005101080069010800E90108000902080057
:1008D000290208003D0208006502080008B5074B20
:1008E0009847074B4FF08072C3F88020C3F88021EF
:1008F000302183F818131A6008BD00BF51080800A2
:1009000000E100E010B504462849294B984730B96A
:10091000284B984701462848284B984710BD28493E
:100920002046234B984760B9224B984700231A462C
:1009300081B22448244CA04741F27070234B984761
:1009400010BD234920461A4B984700282AD1214B35
:100950001C78032C08D8174B98471F4B18551D4A75
:1009600013780133137010BD1B4B9B78772B0AD182
:10097000194BDB78202B12D1184B984741F270703D
:10098000124B984710BD722B09D1134BDB78202BEB
:1009900005D10122124B1A60124B984710BD054B2E
:1009A000984710BD034B984710BD00BFBC3F0800DF
:1009B000053D0800851408000080094081340800C6
:1009C000B43F080000800040B1010800010007208A
:1009D000AC3F0800C4060720641407202105080066
:1009E0005C1407206105080003782BB10022027017
:1009F00010F8013F002BFAD1704700BF70B5164BBD
:100A0000984710B9154B984770BD154B1B780BB321
:100A1000144B1B786BB1144C114E21683046134BAC
:100A2000984700250F4B1D703046114B98472560A5
:100A300070BD06210F480D4EB0470B4C084D216884
:100A40002846B0470A200C4B98472846084B984741
:100A50000023236070BD00BF291508008111080024
:100A6000E008072074160720E00A07209D160800FA
:100A7000E9090800BC3F0800D515080008B51B4A65
:100A80001368013313601A4A13680133136019495C
:100A90000A6801320A60042B15D90122144B1A602E
:100AA0001548164B98470022154B1A60154B1B68CA
:100AB0001BB1144B1A60144B98470022134B1A7049
:100AC00013480E4B9847094B1B68042B04D901228D
:100AD000064B1A600F4B9847064B1B68042B04D932
:100AE0000122044B1A600C4B984708BD781607206A
:100AF0007016072068160720CC080720E9090800AF
:100B0000FC0A07205C14072031060800C4060720F1
:100B100064140720FD0908008107080070B582B041
:100B20003248334B9847044610F0010F39D0012268
:100B3000304B1A6001A92D482F4B984710B914F477
:100B4000E07F08D0294C20462C4B984720462C4B60
:100B500098472C4B98472C4B1B68B3F5007F19D155
:100B60002A4B1B7833B12A4B1B781BB90621294825
:100B7000294B98470126264B1E70234D234C29688C
:100B80002046254B98472046244B9847019B2370CD
:100B90002E6028E001991D4AD15401331A4A13608E
:100BA00021E010F0020F1ED01D4B984798B1012292
:100BB0001C4B1A601C4B1C68052C08D81B4B984713
:100BC0001B4B1855184A1368013313600BE0184883
:100BD000184B984707E0054C2046174B98470221D1
:100BE0002046164B984702B070BD00BF00800940F8
:100BF0007D34080078160720953408006934080011
:100C0000613408006D110800E00A0720E0080720A1
:100C100074160720BC3F08009D160800E90908006B
:100C2000B913080070160720FC0A07208514080075
:100C3000CC0807200509080059340800753408005D
:100C400010B511200D4B98470D4A0E490E480F4B19
:100C5000984788B90C4C20460D4B984720460D4BC1
:100C600098470D4B302283F811234FF400321A605D
:100C700003212046094B984710BD00BFAD3708003F
:100C800000BD0105E40A072000800940FD3308008B
:100C9000513408006134080000E100E071340800BC
:100CA00008B54FF0FF310248024B984708BD00BF1E
:100CB000008009407534080010B50748074B984775
:100CC00010F0010F07D0044C2046054B9847022135
:100CD0002046044B984710BD008009407934080035
:100CE000513408007134080070B50379012B04D029
:100CF000022B0CBF0221002100E001214379013BBE
:100D0000032B0CD8DFE803F0020E05084FF4007245
:100D100009E04FF4C06206E04FF4806203E04FF454
:100D2000006200E0002283795C1F022C94BF2346FE
:100D3000C0230068104D28606B60AA60E960002342
:100D40002B610E4C20460E4B984706464FF0FF3164
:100D500020460C4B98470C4A294620460B4B984797
:100D600020460B4B984720460A4B98473146204671
:100D7000094B984770BD00BFE40A07200080094076
:100D8000793408007534080000BD0105FD33080002
:100D9000513408006134080071340800024A1378A5
:100DA000013BDBB213707047140F0720002070471F
:100DB0000020704708B50248024B984708BD00BFA5
:100DC000000B0720E90C080008B50023114A137036
:100DD000114A1380114AA1211170202151705380B2
:100DE00093800221D18013810D484FF4E1320260DB
:100DF00003714371082383710A4B98470A4B984744
:100E0000024620B103490B780133DBB20B70104668
:100E100008BD00BF140F0720401307202C0F072028
:100E2000000B0720E90C0800013B0800454B1B782C
:100E300013F0FF0F40F0848030B585B0424B9847E7
:100E400030B1424B1C88424B9847844206D175E032
:100E50003E4B1C883F4B984784426FD0EFF3108382
:100E6000B3FA83F35B09039372B6BFF35F8F00227B
:100E7000394B1A70039D394B1C78E4B2384B33F868
:100E80001430DBB9374A1388013313802E4B98474F
:100E900018B9344B1B88632B07D92B4B984768B183
:100EA000304B1B88B3F5487F08D2002D46D0012275
:100EB000294B1A70BFF35F8F62B63FE00022294BC7
:100EC0001A80294B1B7813F0FF0F05D1B4FA84F375
:100ED0005B09224A137002E0B4FA84F46409012227
:100EE000184B1A7025B11C4B1A70BFF35F8F62B696
:100EF00025461B4B33F81430B3F5007F14BF012493
:100F000000240CD0104B984720B1114B98470F4B41
:100F1000188007E00F4B98470C4B188002E0002226
:100F20000A4B1A800E4B33F81530104A0092104AC3
:100F300002EB4522214681200E4CA04705B030BD72
:100F4000704700BF280F0720392C0800200F07200A
:100F5000952C0800852C080077020720080B072035
:100F60000C0B07200A0B07203C130720790F080001
:100F7000100B0720FD2E080088B908B5084B1B7818
:100F800013F0FF0F0CBF01220022064B23F81200C2
:100F9000054B1870054B1870054B984708BD7047F6
:100FA000080B07200C0B07203C130720280F0720F5
:100FB0002D0E080008B50020014B984708BD00BF62
:100FC0002D0E08000D4B1B78BBB90D4B1B889BB237
:100FD0000C4A12899A4210D010B582B00846084BCC
:100FE0001B88084A1381084B00930A230021074CF1
:100FF000A047024B187002B010BD7047180F0720B1
:10100000401307202C0F072071100800FD2E080048
:1010100000B583B0EFF31083B3FA83F35B09019358
:1010200072B6BFF35F8F00200E4B1870019829B184
:101030000D490B889BB21A430A8005E00A490B88C8
:101040009BB223EA02020A8028B10122054B1A70E2
:10105000BFF35F8F62B683210020044B984703B033
:101060005DF804FB7702072040130720C50F080036
:1010700008B50020084B187008490B8823F07C0342
:101080001B041B0C0B8006490B8923F07C030B818E
:101090001146044B984708BD180F0720401307203E
:1010A0002C0F0720C50F080008B5064A1378013B2E
:1010B000DBB213701378044B98470022034B1A706D
:1010C00008BD00BF070B0720113B0800220F0720B7
:1010D00008B5224B1B7813F0800F12D003F0600389
:1010E000202B2ED11D4B5B78212B2CD11B4BDB8869
:1010F000072B2AD1194B1A4A9A6007229A8101209C
:1011000008BD03F06003202B21D1144B5B78202B0A
:1011100002D0222B0DD01CE0104BDB88072B1AD1FC
:101120000E4B104A1A610E4A9A6007229A810120DA
:1011300008BD0A4B987800F001000B4B984701203E
:1011400008BD002008BD002008BD002008BD00200B
:1011500008BD002008BD002008BD00BF8416072080
:10116000000B0720B50D0800213B080008B5102230
:1011700001210020014B984708BD00BF1110080055
:1011800008B5402201210020014B984708BD00BF4F
:101190001110080082B0EFF31083B3FA83F35B09F8
:1011A000019372B6BFF35F8F00220B4B1A70019A46
:1011B0000A4B188880B20A4B1B78DBB2094931F818
:1011C00013309BB2181A2AB10122034B1A70BFF3D5
:1011D0005F8F62B602B07047770207201C0F0720AE
:1011E000240F0720100F072008B5034B9847003045
:1011F00018BF012008BD00BF9511080010B584B0CC
:10120000EFF31083B3FA83F35B09039372B6BFF372
:101210005F8F0022214B1A70039B214A1478214AC8
:10122000127812F0FF0F09D1E4B21F4A118889B277
:101230001E4A32F8142092B2914208D253B30122CE
:10124000164B1A70BFF35F8F62B6002023E00021B7
:10125000154A1180B4FA84F2520911490A70012129
:10126000104A117023B10D4B1970BFF35F8F62B636
:1012700000200F4B984708B10E4B98470E4B009338
:101280004FF400730D4A02EB4422012102200C4C62
:10129000A04700E0002004B010BD00BF7702072087
:1012A000240F0720381307201C0F0720100F0720DA
:1012B000E9110800B90C080055130800380F072081
:1012C000FD2E080010B50024154B1C70154B1C702A
:1012D000154B1C70154B1C70154B1C805C80154BFE
:1012E0001C802046144B9847144B1C70144B1C70E8
:1012F000144B1C805C80144B1C802046134B984779
:10130000014658B1064A13780133DBB213701378E3
:10131000DBB2012B02D101220D4B1A70084610BD21
:10132000070B0720280F07203C130720080B072076
:101330000C0B0720200F07202D0E08003813072064
:10134000240F0720100F07201C0F0720FD11080095
:10135000220F072000BB10B582B010460F4B1B7840
:1013600013F0FF0F0CBF0122002251B90C4B009368
:101370004FF400730B4901EB422201210A4CA047B4
:1013800008E089B2094B23F812100020084B1870AE
:10139000084B984702B010BD704700BF240F0720CC
:1013A00055130800380F0720FD2E0800100F0720E6
:1013B00038130720FD11080008B50020014B98479D
:1013C00008BD00BFE91108002DE9F04782B0254BA8
:1013D00093F80680B8F1090F14BF4FF000084FF0E2
:1013E00001084FF0000A204CD14657461F4D204EB1
:1013F000EFF31083B3FA83F35B09019372B6BFF383
:101400005F8F277001982B889BB23278D2B219492E
:1014100031F8121089B220B101202070BFF35F8F24
:1014200062B68B4206D3144B1B7813F0FF0FDFD14B
:10143000002013E0114901EB4222D05C40EA0A0A85
:1014400001339BB22B8048460D4B9847B8F1000FF3
:1014500003D04FEA0A2AC846CAE7504602B0BDE8A0
:10146000F08700BF000B0720770207201C0F072022
:10147000240F0720100F0720220F0720380F072006
:10148000FD11080008B50020014B984708BD00BFBA
:10149000C913080082B0EFF31083B3FA83F35B093A
:1014A000019372B6BFF35F8F0022154B1A70019A39
:1014B000144B1B78DBB2144931F81300B0F5007FF0
:1014C00012D11249097811F0FF0F0DD11049097896
:1014D00011F0FF0F08D101200D490870B3FA83F312
:1014E0005B0908490B700020C0F500702AB1012289
:1014F000034B1A70BFF35F8F62B602B0704700BF34
:1015000077020720080B07200C0B0720280F072065
:101510003C13072008B5034B9847003018BF012043
:1015200008BD00BF9514080008B50020014B98477E
:1015300008BD00BF151508002DE9F04182B00C462A
:101540001D4B9D79092D14BF002501251B4E1C4FF5
:10155000DFF87C800020B04728B91A4B1B7813F0C5
:10156000FF0FF7D124E0EFF31083B3FA83F35B09A5
:10157000019372B6BFF35F8F00233B70019898F818
:101580000030DBB2104A32F8131001F1010E22F8DC
:1015900013E00E4A02EB43235C5420B101233B705D
:1015A000BFF35F8F62B615B124120025D2E7012088
:1015B00002B0BDE8F08100BF000B07201515080040
:1015C00077020720220F07200C0B0720100B0720A3
:1015D000080B072008B501460020014B984708BDBD
:1015E000391508002DE9F04F83B088461746234B84
:1015F0009B79092B08BF5700DFF898A00020D0473F
:1016000030B91F4B1B7813F0FF0FF7D1384631E08C
:10161000EFF31083B3FA83F35B09019372B6BFF360
:101620005F8F0023174A1370DDF804B0164B1D7846
:10163000EDB2DFF8649039F81560C6F50074BC426D
:1016400028BF3C4606EB4523224641460F48184436
:101650000F4B9847264429F81560BBF1000F05D0C1
:101660000123084A1370BFF35F8F62B6A0443F1B8B
:10167000C4D1002003B0BDE8F08F00BF000B0720ED
:10168000220F072077020720080B0720100B0720E6
:101690007D3B0800151508000C0B072008B50A460D
:1016A00001460020014B984708BD00BFE515080022
:1016B0000F4B1B681A6853881A44037818449042E9
:1016C00010D24378042B0FD08B4205D1704743785A
:1016D000042B0BD08B420AD0037818449042F6D3E7
:1016E000002070470020704700207047002070479E
:1016F0004413072008B5034B987800F07F00024B95
:10170000984708BD841607204D2C0800174B1B78FE
:101710002BB3174B1B681B681A79824221D970B40E
:10172000144A13605C881C44A3421CD20025012685
:101730005A78042A0AD19A78824207D1DA788A4202
:1017400004D10DB10B4A136001200DE01A78134447
:101750003546A342ECD3074A1360002004E0002082
:10176000704700207047002070BC70474C13072062
:1017700044130720501307202DE9F84304460021A5
:10178000124B98478046E8B1114B1B685B6853F8D1
:101790002490D9F80C309847014620460B4B9847C7
:1017A000804678B10B4B1C6805260B4D0B4F31461C
:1017B0002046A847044610B18078B847F7E7D9F823
:1017C000043098474046BDE8F88300BF0D17080075
:1017D0004413072050130720B1160800B12C08004D
:1017E0002DE9F0418046104B98470346C8B10F4B96
:1017F0001C6805260E4D0F4F31462046A84704466B
:1018000038B18288C1788078B84703460028F3D180
:1018100007E0094B1B685B6853F828301B68984742
:1018200003461846BDE8F0810D1708005013072045
:10183000B1160800FD2F08004413072008B5014B1E
:10184000984708BDD523080070B50D4B1B7883B1B0
:101850000C4B1B681B681B795BB100240A4E094DB9
:101860002046B0470134E4B22B681B681B79A342C1
:10187000F6D80022024B1A700122044B1A8070BD68
:101880004C13072044130720791708004A13072038
:1018900038B50C4B1B789BB10B4B1B681A6812793F
:1018A00072B10024084D5B6853F824301B6903B102
:1018B00098470134E4B22B681A681279A242F2D830
:1018C00038BD00BF4C13072044130720F8B5994BCF
:1018D00000229A811A615A611B7813F0800F00F080
:1018E000AB82944AD288002A40F0AA829CE213F08C
:1018F0001F0340F0C1808F49497806290DD008297F
:1019000000F0B280002940F0B780022A40F06182E6
:1019100002218948894B984796E2864B5A88D4B26F
:10192000130A013B0E2B00F20182DFE813F00F00D7
:101930001E007300FF01FF0141004700FF01FF018E
:10194000FF01FF01FF01FF01FF016A007C4B984787
:1019500028B97C4B98680178784B98477BE0794BA5
:1019600018680178754B984775E0754B984768B1D2
:10197000744B9B685B7CA34240F20582714B1B69F0
:1019800053F8340041886D4B98470CE06D4B1B6851
:101990005B7CA34240F2F7816A4B5B6853F83400EA
:1019A0004188664B9847634B9B6802225A7052E00D
:1019B000644BD8680178614B98474CE0604B98477E
:1019C00068B9604B9B685B7CA34240F2DC815D4B55
:1019D0001B6953F834004188584B98470CE0594B29
:1019E0001B685B7CA34240F2CE81564B5B6853F888
:1019F00034004188514B98474E4B9B6807225A70E0
:101A000029E0504B5869002800F0E38141884B4B96
:101A1000984720E0D2B2012A0BD02AB1022A40F026
:101A2000B281494B0F2106E004214848434B9847B7
:101A300011E0474B09211C46464813F8012B20F8BA
:101A4000022F1A1BD2B28A42F7D349000231414811
:101A500001703A4B9847374BDA889B89934240F2A2
:101A6000F381344B9A81EFE1012A40F0B2810121E8
:101A70003948324B9847E7E1012B27D12D49497866
:101A80000A2923D1012A40F08481334B1B78002B93
:101A900000F07F81274B1C79304B1D682B681B7928
:101AA000A34240F27681002120462D4B9847002822
:101AB00000F069816B6853F82430DB689847294B44
:101AC0001870012118461D4B9847BDE1022B40F0CC
:101AD0005A81184B5B78002B40F02A81022A40F093
:101AE0007881144B1879204B9847204B188002219D
:101AF0001846124B9847A7E113F01F0340F0D2801D
:101B00000C4A5278013A082A00F2CC80DFE812F041
:101B10003200CA004200CA000900CA00CA00CA0056
:101B20007300044BDB88002B40F05381104A014BBB
:101B30001A6189E1841607204A130720A52C0800A2
:101B4000392C0800EC010720600107209C010720C8
:101B5000700107207C0107204C1307204413072045
:101B60000D170800481307200D2D080054130720F7
:101B7000F5160800714BDB88002B40F02A816F4B73
:101B80005B88012B40F025816D4A138823F0020306
:101B9000138059E1694BDB88002B40F01A81674BB9
:101BA0005B88022B40F0C680664B9847002800F007
:101BB000EA80624B1B79002B40F0E580624B98472E
:101BC0005E4B9B881B0A013B032B00F2B580DFE8CC
:101BD00003F002060A0E5D4A584B1A6134E15C4A72
:101BE000564B1A6130E15B4A544B1A612CE15A4A58
:101BF000524B1A6128E1514BDB88002B40F0E98001
:101C0000564B9847002800F0BE804E4B984738B19D
:101C10004A4B9A78524B9B685B7C9A4208DDB2E053
:101C2000464B9A784E4B1B685B7C9A4200F3AB8024
:101C3000454B9847414B9B784A4A1370002B00F064
:101C40000381404B984780B1464B1B7803F100530A
:101C5000013B434A126902EBC303434A1360424B00
:101C60001B681B681B7963B9EEE03E4B1B7803F1E0
:101C70000053013B3A4A526802EBC3033A4A1360ED
:101C8000EDE700242646394D374F31462046A84718
:101C9000002878D00134E4B23B681B681B79A3426A
:101CA000F3D8D1E0012B19D1244A52780B2A15D14F
:101CB000224BDB88002B6CD12A4B1B78002B68D081
:101CC0001E4B1C795D882046294B984700285AD026
:101CD000E9B22046254B9847034652E0022B52D1E9
:101CE000164B5B78012B02D0032B0ED048E0134B30
:101CF000DB88002B6DD1114B5B88002B69D10F4B1A
:101D000018791C4B984703463BE00C4BDB88002BB3
:101D10005FD10A4B5B88002B5BD1084C2079164BB6
:101D200098472079154B984703462AE0002328E07E
:101D3000002326E0002324E0002322E0841607206D
:101D40004A130720392C080049180800853208007A
:101D5000A1320800BD320800D1320800752C0800FD
:101D6000EC0107204C13072044130720E11708005B
:101D700079170800212E080009320800212D0800DB
:101D80000023002B61D1324B1B7803F01F03012B82
:101D90001FD1304B1B78002B48D02D4B1C792E4B7C
:101DA0001D682B681B79A34242D9002120462B4B8A
:101DB000984770B16B6853F82450EB689847014618
:101DC0002046264B984720B1AB6898470346002829
:101DD0003BD11F4B1B7803F01F03022B2AD11D4B55
:101DE0001B78EBB11C4B1A6813681B79D3B1002424
:101DF0001A4E194F536853F82450EB689847014620
:101E00002046B047034600B3AB6898470346E0B9A5
:101E10000134E4B23A6811680979A142EAD814E0C1
:101E2000002312E0002310E000230EE000230CE06A
:101E300000230AE0002308E013F0600FA3D15BE663
:101E400013F0600F9FD152E501231846F8BD00BF83
:101E5000841607204C130720441307200D17080091
:101E60002DE9F041044688460E4B9847054620462A
:101E70000D4B9847054013D00C4C04F160062368C5
:101E8000434508D16168294205D0E3684046984738
:101E9000636825EA0305B44202D01034002DEED168
:101EA000BDE8F081CD350800D13508005813072072
:101EB00008B50B210148024B984708BD000E0E40A3
:101EC000611E080008B50C210148024B984708BD67
:101ED00000100E40611E080008B50D210148024B9C
:101EE000984708BD00120E40611E080008B50E217B
:101EF0000148024B984708BD00140E40611E0800BF
:101F000082B0EFF31083B3FA83F35B09019372B6E7
:101F1000BFF35F8F00220C4B1A70019B01210B4A0B
:101F2000116023B1084B1970BFF35F8F62B60222B4
:101F3000074B1A60074A0023136153619381064AD5
:101F4000137002B0704700BF7702072020C20A401A
:101F500060C10A4084160720181407200522034B8D
:101F60001A704FF40022024B1A60704718140720B1
:101F7000F0C10A4082B003220F4B1A70EFF31083B6
:101F8000B3FA83F35B09019372B6BFF35F8F00224C
:101F90000A4B1A7001980A4901220A60094B1A601B
:101FA00008220A601A6028B10122044B1A70BFF39C
:101FB0005F8F62B602B070471814072077020720BF
:101FC00060C10A40F0C10A4008B5024B1B6903B169
:101FD000984708BD8416072010B584B0EFF310832E
:101FE000B3FA83F35B09019372B6BFF35F8F0022EC
:101FF0004C4B1A70019B01214B4A116023B1494B94
:102000001970BFF35F8F62B6484B1B78032B04D166
:10201000474B9847474B984781E0474B1A88474BB7
:102020009C89A41AA4B2002C33D145490B881344CF
:102030009BB20B80414AD2889A4202D0414B1B7816
:10204000EBB10422394B1A70EFF31083B3FA83F328
:102050005B09039372B6BFF35F8F0022314B1A7096
:10206000039A102338490B6090310B60002A56D038
:1020700001222C4B1A70BFF35F8F62B64FE02F4BDB
:102080005B696BB1984758B100222B4B1A802B4BE0
:102090009C893F2C04D900222A4B1A70402402E06C
:1020A0000122284B1A70254B9A68234B1B88EFF3AB
:1020B0001081B1FA81F14909029172B6BFF35F8FC5
:1020C00000201849087002982049096811F0020F91
:1020D00001D15CB913E028B10122124B1A70BFF391
:1020E0005F8F62B60422114B1A7018E01A44184B25
:1020F00012F8011B03F8011BD9B2A142F8D30E4A12
:1021000013881C44148001230F4A1360903213601B
:1021100028B11A46034B1A70BFF35F8F62B604B042
:1021200010BD00BF7702072020C20A401814072004
:10213000C91F0800011F08001A1407208416072071
:10214000CA1307201C14072060C10A4030C10A408E
:1021500000001820037D13F0010F13D010B50C46BA
:10216000037D6FF300030375036853B1064951F80B
:10217000221011F4807F18BF42F08002816820464F
:10218000984710BD704700BF00C10A40431E03EBD3
:1021900043015E4A02EBC102127D12F0010F00F012
:1021A000B480F0B583B00A46584901EBC202D16849
:1021B0009268914276D0521AB2F5803F92BF1704CE
:1021C0004FF480320027524C54F8205015F4807F91
:1021D00014D054F82040C4F302150824AC40013C4C
:1021E00014421BD047F0080703EB4304474D05EBAF
:1021F000C404257D6FF3410525750FE054F8205088
:10220000C5F3C125012D07D154F82040C4F30215B0
:102210000824AC40A24201D847F014073D4C04EB1F
:10222000001403EB4305394E06EBC5056D682944E0
:102230006160EFF31081B1FA81F14909019172B641
:10224000BFF35F8F002534490D70019DE16811F0E7
:10225000100F19D147F02107A76003EB430006EBED
:10226000C001C8681044C8600A614FF0007000FAED
:1022700003F32A4A9361002D45D00122264B1A70A0
:10228000BFF35F8F62B63EE02DB10121224A11708B
:10229000BFF35F8F62B603EB43021C4901EBC2023E
:1022A000D16891601A4A52F8202012F4807F21D020
:1022B00003EB4302154901EBC202127D12F0020F3B
:1022C00018D00122164B43F82020303B53F8203021
:1022D00013F4803F1CBF134B43F820200122124B04
:1022E00043F820204FF4805202FA00F0A3F5F8736F
:1022F000986108E0024603EB43030021034800EB2A
:10230000C3000A4B984703B0F0BD7047D0130720B5
:1023100000C10A4000C30A407702072000C00A40FB
:1023200060C10A4090C10A40F0C10A40552108002E
:1023300082B00146002840D1234B1B78002B39D0B6
:10234000224B9B7803B9FEE7EFF31083B3FA83F3D4
:102350005B09009372B6BFF35F8F00221C4B1A70AB
:1023600000981A4A9378013B937018B30122184BD6
:102370001A70BFF35F8F62B61CE0144B9B78FF2B83
:1023800000D1FEE7EFF31083B3FA83F35B09019307
:1023900072B6BFF35F8F00220D4B1A7001980B4A83
:1023A00093780133937028B10122094B1A70BFF35F
:1023B0005F8F62B6044B197004E0034B1B78002B4F
:1023C000F8D1DAE702B07047CC1307207C1607205B
:1023D0007702072010B582B0EFF31083B3FA83F3CE
:1023E0005B09009372B6BFF35F8F0022544B1A70E3
:1023F000009C2820534B9847534B9847534B5022EF
:1024000083F828234FF480725A604FF48020504B99
:102410009847504BD3F8002822F08072C3F8002868
:10242000D3F8002842F00072C3F80028D3F800283F
:1024300022F08072C3F80028D3F8002842F48052BA
:10244000C3F80028D3F8002842F40042C3F800285B
:102450001A6822F480521A601A6822F440621A60E4
:10246000D3F8002822F48042C3F800281A46D2F894
:10247000043813F4804FFAD0374B1A7D02F0FE0275
:102480006FF382021A7593F82C2002F0FE026FF3AC
:10249000820283F82C2093F8442002F0FE026FF3AE
:1024A000820283F844202B4B0222C3F80828D3F879
:1024B000043813F4006F1CBF264BC3F80C28254BBF
:1024C000D3F8002842F00202C3F80028D3F800280D
:1024D00042F48042C3F80028204B1B781BBB01222A
:1024E0001E4B1A7000221E4B1A701E4BDB78FF2BFE
:1024F00000D1FEE7EFF31083B3FA83F35B09019396
:1025000072B6BFF35F8F00220D4B1A700199154A06
:10251000D3780133D37049B10122094B1A70BFF34C
:102520005F8F62B602E000200F4B98472CB101226A
:10253000034B1A70BFF35F8F62B602B010BD00BFCD
:1025400077020720AD370800AD34080000E100E055
:102550002138080000C00A40D0130720C813072004
:10256000CC1307207C1607203123080070B582B0F9
:10257000EFF31083B3FA83F35B09019372B6BFF3F1
:102580005F8F0022194B1A70019C0120184B98474D
:10259000184AD2F8003823F48043C2F80038D2F841
:1025A000043813F4804FFAD0124B1A6822F4807268
:1025B0001A6008269E610121996110229A61042502
:1025C0009D61022098619E609D609860D9609A60CC
:1025D000D3F8002842F48042C3F8002824B1034B0A
:1025E0001970BFF35F8F62B602B070BD770207202B
:1025F0003123080000C00A4008B50A4BD3F8002870
:1026000022F48042C3F800281A6842F480721A60EB
:10261000D3F8002842F48042C3F800280020024B7F
:10262000984708BD00C00A40312308002DE9F04159
:1026300084B0874B984758B9864B5B6813F0010FFD
:1026400006D172B6BFF35F8F0022834B1A70E4E2AB
:10265000804B5B6813F0040F0CD07E4B04229A6011
:10266000D3F8043813F4405F01D17C4B98477C4B7E
:102670009847D2E2774B5B6813F0020F05D0022235
:10268000744B9A60754B9847C7E2724B5B6813F4C2
:10269000805F00F0B382734B10221A6008221A6028
:1026A000F03B1B6813F0040F60D06F4B1B781BB11D
:1026B0006E4B98476E4B98476E4B1B68C3F30A539B
:1026C000082B05D06C4B984704226C4B1A60A4E28F
:1026D0006B4A6C4B6C4813F8011B02F8011F8342D4
:1026E000F9D16A4B984728B9634B98470422634B4A
:1026F0001A6092E20422614B1A60654B93F9003034
:10270000002B0ADA0023634A1380634A13800222F3
:10271000554B1A70614B98477FE25D4BDB8813B9CC
:102720005F4B984779E200225A4B1A805A4B1A8025
:1027300001214D4B19701021504B1960EFF310839C
:10274000B3FA83F35B09019372B6BFF35F8F424B19
:102750001A70019B534A1160002B00F05E82012227
:102760003D4B1A70BFF35F8F62B656E2414B1B6858
:1027700013F0010F07D04C4B1B6813F0010F02D070
:10278000464B984749E23B4B1B6813F0020F00F0A1
:10279000B380354B1B78012B0BD0022B01D0042BBF
:1027A00002D1324B984701E0334B9847304B984762
:1027B00033E2304B1868C0F30A50354B9B89364AD8
:1027C000148822189342AEBF80B21B1B98B2304BC4
:1027D0009A68B0B1631E1A442A4B13F8011B02F821
:1027E000011FD9B28142F8D30444A4B22A4B1C8001
:1027F000402806D1264BDA88264B1B8823449A4270
:1028000011DC234B9C815B693BB1984728B91A4B7B
:1028100098470222194B1A60FFE10222174B1A60F7
:102820001F4B9847F9E11A4B9B89A34246D1184B9D
:102830005B692BB9104B98470222104B1A60ECE1F0
:10284000984798BB0C4B984702220C4B1A60E4E166
:102850003538080000C00A407702072091180800A8
:102860001D3B080020C20A4018140720C91F080099
:10287000011F080030C10A405D1F080060C10A4006
:10288000831607200000182008001820CD18080023
:1028900084160720CA1307201A140720D91F08001E
:1028A000751F0800F0C10A40C0C10A40A749A84AE4
:1028B0000888138803440B8000231380A54B022251
:1028C0001A6010221A60EFF31083B3FA83F35B09E6
:1028D000029372B6BFF35F8F00219F4B1970029B6A
:1028E0009E490A60002B00F0988101229A4B1A70D1
:1028F000BFF35F8F62B690E1994B1B6813F0080F2E
:1029000012D00822934B1A60303B1B6813F0010F62
:1029100040F08381934B1B78032B40F07E814FF472
:1029200000228E4B1A6078E18D4B1B6813F0100F5C
:1029300000F064811022874B1A60303B1B6813F053
:10294000020F40F06A81874B1B78012B02D1864B26
:10295000984762E1042B40F060814FF400227F4BE6
:102960001A605AE1DAB21D4603F1FF3E3C690CFAE7
:102970000EF10C421ED0786801421BD07B4800EB60
:102980000213D86810F0010F40F047817848416188
:10299000DB68180C0AD077494FEA4E0404EB0E05A9
:1029A00001EBC505EB68181AE860A8601046724B89
:1029B000984732E1396908FA05F5294241D09C006F
:1029C00006F19000D6F8901011F0010F14D0316884
:1029D00011F0010F10D0694B0121E1505D482150E9
:1029E0004FF48041E1500EEB4E030021614800EBB3
:1029F000C300634B984710E1026812F4805F20D057
:102A0000326812F4405F1CD14FF480525B4BE250AD
:102A1000A3F508735D610EEB4E03564A02EBC30348
:102A20001A7D6FF382021A75564AA35823F4007375
:102A3000A3504A4B4FF40022E2504FF48022E25060
:102A4000EBE001330436042B8CD1DFE00822484B45
:102A50009A60484D00240127494E0134E4B22246D1
:102A600039462846B0471835032CF6D1464B9847CF
:102A70003F4B1A6822F07F021A601A6842F0800207
:102A80001A6040490A6822F4CB5222F01C0242F03C
:102A900030020A600A6842F002020A60DA6942F013
:102AA0000102DA61EFF31082B2FA82F25209039264
:102AB00072B6BFF35F8F0021274A11700399274A2E
:102AC00004201060022010604FF480529A6129B1F6
:102AD0000122214B1A70BFF35F8F62B62B4B9847D0
:102AE0009BE0234B1B6913F0010F1BD0204B5B684D
:102AF00013F0010F16D01E4BD3F8002822F48042A9
:102B0000C3F8002801225A6110229A61D3F80028E4
:102B100042F48042C3F8002800201D4B98471D4B0B
:102B200098477AE0124B1B6913F0100F47D0104BF7
:102B30005B6813F0100F42D00D4AD2F8003823F42E
:102B40008043C2F8003813462AE000BFCA130720AA
:102B50001A14072060C10A4077020720F0C10A401A
:102B600030C10A4018140720751F080000C30A402E
:102B700000C00A40D01307208D21080020C20A405F
:102B80005521080000C10A4049180800011F08002B
:102B900031230800253B08005A6812F0010F04D1C8
:102BA000D3F8042812F4804FF6D01D4B10225A613E
:102BB000012098611B4B98471B4B98472DE0184B01
:102BC000D3F8043813F0020F27D0154BD3F80028A0
:102BD00022F48042C3F800280222C3F80828D3F860
:102BE000002842F48042C3F80028D3F8043813F4D4
:102BF000006F14BF0D4B0E4B98470EE00D4E012396
:102C0000074F4FF0007C4FF48058ABE6044B5B68F5
:102C100013F0080F3FF465AF18E704B0BDE8F0818A
:102C200000C00A4031230800293B08006D25080038
:102C3000F925080034C10A40034BD3F8040810F406
:102C4000405018BF0120704700C00A40084B1A6866
:102C500022F080021A601A6822F07F0200F07F00E2
:102C6000104318601A6842F080021A60704700BF73
:102C700000C00A40024B186800F07F00704700BF98
:102C800000C00A40024B186AC0F3CA00704700BF78
:102C900000C00A40024B186AC0F30D00704700BF25
:102CA00000C00A40014B9860998170478416072044
:102CB00000F00F02032A21D870B51148C369012121
:102CC00001FA02F423EA0403C36100F5807050F8AE
:102CD000223023F0020340F82230551E094C05FA39
:102CE00001F6701904EBC000074B9847354404EB1C
:102CF000C504237D6FF38203237570BD704700BF49
:102D000000C00A40D01307205521080000F00F0032
:102D1000024B53F82000C0F3C0407047C0C10A40C6
:102D200000F00F03032B5CD8354A52F8232012F42D
:102D3000002F58D110B483B0591E01EB4104314A21
:102D400002EBC402127D12F0040F4ED112F0010FFB
:102D50004DD1EFF31082B2FA82F25209019272B6AB
:102D6000BFF35F8F0024284A1470019C10F0800F7D
:102D70001FD0264A52F8232012F4405F19D001EBED
:102D80004101204A02EBC1010A7D42F004020A75AA
:102D90004FF480521E4941F8232002FA03F31D4AE2
:102DA000936134B30120184B1870BFF35F8F62B684
:102DB00022E0194951F8232022F4007241F823201F
:102DC0004021164A42F823104FF40021903242F875
:102DD000231084B101200C4B1870BFF35F8F62B6D3
:102DE0000AE00020704701207047012004E0002025
:102DF00002E0012000E0012003B010BC704700BFDA
:102E0000C0C10A40D01307207702072030C10A4012
:102E1000F0C10A4000C00A4000C10A4060C10A4037
:102E200010B500F00F0003284ED8431E03EB4301FA
:102E30002C4A02EBC102127D12F0040F48D00A4660
:102E4000284901EBC202117D6FF3820111758200E6
:102E50004FF48051244C44F820108140A4F50874AC
:102E60006161224951F8201011F4002F14D020493B
:102E7000515811F0400F06D040201E4950504FF4D9
:102E80008020903150504FF40020174950501A487C
:102E9000115841F40071115003EB4302114901EB49
:102EA000C202127D12F0010F10D008465900CA1854
:102EB00000EBC202147D6FF3000414750B4450F84C
:102EC00033309847012010BD002010BD012010BDF7
:102ED0008200064951F8201011F4002FC7D10120BB
:102EE00010BD00BFD013072020C20A40C0C10A4055
:102EF00030C10A4060C10A4000C10A4000F00F0022
:102F0000032866D8F0B583B0374CE56901248440C6
:102F10002C4260D0354C54F8204014F4002F5CD182
:102F2000441E04EB4406324D05EBC6052D7D15F01D
:102F3000040F54D1EFF31085B5FA85F56D090195AD
:102F400072B6BFF35F8F00262A4D2E70019F04EBEF
:102F50004405274E06EBC5052D7D15F0010F09D060
:102F6000002F3ED00122234B1A70BFF35F8F62B651
:102F7000002037E004EB44051D4E06EBC5052E7D11
:102F800046F001062E752FB101261A4D2E70BFF3A3
:102F90005F8F62B6164F04EB4405ED007E19726038
:102FA000B3600022F2603261089A7A5119B9B3FA1B
:102FB00083F35B0900E0012304EB44040C4A02EBB9
:102FC000C404227D63F3410222750B4B9847012014
:102FD00008E000207047002004E0002002E000200C
:102FE00000E0002003B0F0BD00C00A40C0C10A40AC
:102FF000D0130720770207208D2108002DE9F04724
:1030000082B000F00F04032C00F2DF80784BDD6902
:1030100026460123A3402B4040F0D98011F0030540
:1030200000F0D780022D05D9032D40F0D2804FF05B
:10303000000C01E04FF0010C4FEA840E6D4F57F881
:10304000245025F4CB5525F01C05C90201F4C051CC
:1030500000F08000002818BF4FF48073A2F5806054
:1030600080B2B0F57C4F04D3082A05D95200013A4A
:1030700003E040F2FF7200E00F22B2FA82F241EA6E
:103080008C0C4CEA0303C2F11C0243EA021222F444
:10309000D06222F00302D204D20C2A434EF8072059
:1030A000012303FA06F6B6B2022C00F29880524AC7
:1030B00003234F480127C56907FA03F10D4209D0E0
:1030C0000E43B6B2C56925EA0101C161116821F05C
:1030D00002011160013B043AD9B2A142EBD87EE073
:1030E00046FA04F313F0010F69D004F1FF3E0EEB32
:1030F0004E0307EBC3031A7D02F001016FF30002D8
:103100001A75A00000EB050C55F8243043F00203BB
:1031100045F82430DFF8D890D9F81C200123A340CB
:103120001343C9F81C3058F8243013F4802F19D1F8
:103130000EEB4E03314A52F83350002D4BD0DCF8E1
:10314000003013F4807F18BF44F080040EEB4E0E65
:103150002A4B03EBCE0E2246DEF80C100120A847C6
:10316000002041E055F8243043F4007345F8243042
:1031700029B30EEB4E0107EBC101CA680B69D21AE5
:10318000CA60435913F4807F14BF44F0800AA246FA
:103190004FEA4E0C0CEB0E0107EBC1018B68D1F826
:1031A0000490097DE64457F83E0000909B1A4A447B
:1031B000C1F340015046DFF84890C84768B1013478
:1031C000E4B2042C8CD101200EE000200CE00020A1
:1031D0000AE0002008E0002006E0002004E0074F9D
:1031E000044DDFF820807BE702B0BDE8F08700BF28
:1031F00000C00A4000C10A400CC10A40D013072099
:10320000FD2E080030C10A4070B500F00F02541EB8
:103210004FF00073A34015494B61154B03EB0213AC
:1032200000259D604FF4805393404B6110F0800F58
:1032300013D093000F4818440F4D1D444FF400560F
:1032400001F5E071194404E02E600B6813F4005F8F
:10325000FBD1036813F4405FF6D104EB4404012171
:10326000064800EBC400064B984770BD00C00A40FA
:1032700000C30A4030C10A40F0C10A40D013072001
:1032800055210800054A136823F4406343F40063A2
:103290001360136843F400531360704700C00A4082
:1032A000054A136823F4406343F400631360136812
:1032B00043F480431360704700C00A40034A136818
:1032C00023F4406343F400631360704700C00A4076
:1032D000F0B48EB0224C6E4604F1300735462068BB
:1032E0006168A268E3680FC510342E46BC42F5D170
:1032F0002068286023792B711A4AD36923F00103CF
:10330000D36119490B6823F4CB5323F01C0343F416
:10331000895343F010030B600B6843F002030B600A
:10332000D36943F00103D361136823F4406343F48A
:1033300000631360136843F4004313600B4A6B4649
:103340000DF1350013F8011B02F8011F8342F9D17A
:103350004FF48042064B1A600EB0F0BC704700BFBD
:10336000C43F080000C00A4000C10A40FFFF172008
:1033700020C20A4010B40C0194420FD91AE04168EF
:1033800041F400214160120402F4E0221A43026277
:1033900000201CE001201AE0012018E0630803EB84
:1033A000C202B2FBF4F2D3085C1E4FF6FE718C42EF
:1033B000E9D9EFE7C9004B0803EBC202B2FBF1F217
:1033C000D3085C1E4FF6FE718C42E5D8D7E710BCDF
:1033D000704700BF084BC0F8E430002343604362ED
:1033E000836288230360242303604FF480730360A7
:1033F0004FF40023036070470041535570B50546F4
:103400000C4616460F4B984700220F4B1A609CB192
:103410003246216828460D4B9847024670B96168CC
:10342000A368194323691943E3680B4306490B60FA
:1034300069680B436B6002E0012200E00122104644
:1034400070BD00BFD5330800201407207533080075
:1034500040230360704700BF80230360704700BFB4
:1034600010230360704700BF24230360704700BF30
:1034700081607047C160704700697047406970475C
:10348000436913F0020F1DBFC1F30801C1610020A1
:1034900001207047436913F0010F05D08369C3F31E
:1034A00008030B60002070470120704708B5044BEB
:1034B00098470020034B9847034B984708BD00BF2F
:1034C00095370800013808001538080010B50E4877
:1034D0000E4B98473E2100200D4B98470D4CA047BE
:1034E0000028FCD00C4B98470C4A0D4B9A620D4CAF
:1034F000A0470028FCD010200B4B98470B4B984757
:103500000148024B984710BD00BD0105B1000720DE
:10351000113708006537080075370800013F0D2096
:1035200000060E4085370800A936080095390800C6
:103530004264B1F1805F16D004D8C1B1B1F1006F1F
:103540000AD013E0B1F1405F11D0B1F1605F0ED04D
:10355000B1F1205F0AD17047016F036F0B4023EA7E
:103560000203036702E0036F13430367426070477F
:10357000416412F0010F14BF4166016612F00A0F98
:1035800014BF0162416212F0020F02D0C0F8801035
:1035900004E012F0080F18BFC0F884104161016008
:1035A000704700BF10B44164019C0CB1416600E05B
:1035B00001660BB1016500E041650AB1016300E0FD
:1035C00041630161016010BC704700BFC06C70476F
:1035D000806C704770B582B00D46430903F5001347
:1035E00003F207735C0201F0F043B3F1205F30D0C7
:1035F00006D8B3F1006F0AD0B3F1805F18D049E06C
:10360000B3F1405F30D0B3F1605F2DD042E000F005
:103610001F000126864032464FF0006120461F4BB6
:10362000984715F0010F14BF66662666012032E048
:1036300000F01F000126864032464FF080512046A0
:10364000164B984715F0010F14BF666626660120D9
:1036500021E000F01F0101262A4606FA01F120466A
:103660000F4B9847304616E005F0605200F01F01FE
:10367000012605EA06030093C5F38003B2F1605FFB
:1036800014BF0022012206FA01F12046054CA04792
:10369000304600E0002002B070BD00BF31350800A8
:1036A00071350800A5350800184A136B23F0700324
:1036B00018431063936E13F0080F03D009E0013B29
:1036C00003D11EE04FF4006310498A6E12F0080F18
:1036D000F5D00E4A136B23F0030343F00203136388
:1036E000906E10F0080004D000207047013B03D119
:1036F00009E04FF4006305498A6E12F0080FF5D017
:103700007047012070470120704700BF00060E403F
:1037100038B111490B6A114A1A40114B13430B621D
:1037200070470D48026A090289B222F45C1323F043
:10373000030343F45C1343F001030B4303620246AB
:10374000936E13F0010FFBD0034A136A43F09B738F
:1037500043F480331362704700060E40FCFFC8FE3E
:1037600002003701024B986E00F48030704700BFB2
:1037700000060E404FF00052014B9A62704700BFA6
:1037800000060E40024B986E00F00200704700BF2A
:1037900000060E404FF44412034BDA611A46936E52
:1037A00013F0400FFBD0704700060E402C281ED8A7
:1037B0001F280CD8114B9A6901238340934318D0DA
:1037C000012303FA00F00D4B1861002070472038E8
:1037D0000A4BD3F808210123834093430BD00123E4
:1037E00003FA00F0054BC3F80001002070470120E8
:1037F0007047002070470020704700BF00060E4051
:10380000000200F4706040F00100014B98637047C3
:1038100000060E402022014B1A60704700060E4041
:10382000034A136FC0F3120003431367704700BFCE
:1038300000060E40024B187880F00100704700BF70
:103840002414072010B54FF400421F4B5A600B2080
:103850001E4CA0470C20A0470D20A0470E20A047DB
:103860001B4B1C4A5A60F0211B4A82F8231000228D
:103870009A6007221A604FF000610A20174CA04797
:103880004FF000610B20A04715492B20A0474FF0B7
:1038900000612A20A0474FF000611920A0474FF097
:1038A00000611A20A0474FF000611B20A0474FF095
:1038B00000611C20A0474FF000612C20A0474FF072
:1038C00000612D20A04710BD501A0E40AD370800F2
:1038D00010E000E01F48010000ED00E0D5350800D1
:1038E00001000008FEE700BF08B51E4B1E4A9A42C1
:1038F00003D01E4B1B4A9A4204D31D4B1D4A9A42C9
:103900000FD31AE017491C4B5B1A23F0030304334F
:10391000154A134452F8040B41F8040B9A42F9D1AA
:10392000EBE7164B164AD21A22F003021A44043B64
:10393000002143F8041B9342FBD1124B23F0604259
:1039400022F07F0210498A6003F16043B3F5801FC3
:1039500003D28B6843F000538B600C4B98470C4BA1
:103960009847FEE70000072028400800A806072027
:103970009C160720A8060720A7060720AC060720EC
:103980009F1607200000080000ED00E02D3B080016
:10399000B13A08003E4B1B6B03F00303032B5FD8C7
:1039A000DFE803F0020E2B2B3A4B5B6913F0800F1C
:1039B00014BF4FF400424FF4FA42374B1A604FE005
:1039C000334B1B6A13F0807F03D0344A324B1A60AA
:1039D00046E0334A304B1A602D4B1B6A03F07003EC
:1039E000102B02D0202B04D03AE02E4A2A4B1A602A
:1039F00036E02A4A284B1A6032E0254B1B6A13F046
:103A0000807F03D0254A244B1A6012E0244A224BBF
:103A10001A601F4B1B6A03F07003102B02D0202B7F
:103A200004D006E01F4A1C4B1A6002E01B4A1A4BE6
:103A30001A60174B1B6B03F00303022B0DD1144AC2
:103A4000936A926A1448C3F30A41036801FB033383
:103A5000D2B2B3FBF2F3036002E0134A0E4B1A60DA
:103A60000B4B1B6B03F07003702B07D10A4A1368D2
:103A70000E49A1FB03135B0813607047044B1B6BDB
:103A80000549C3F302120B68D3400B60704700BFB7
:103A900000060E40101A0E4078020720001BB700E7
:103AA00000093D0000127A00001C4E0EABAAAAAA23
:103AB00008B501210B4B1970BFF35F8F62B60A4B3B
:103AC00000221A705A709A70DA701A715971074B85
:103AD0009847074B9847074B9847074B9847074B22
:103AE0009847FEE7770207207C160720CD340800B0
:103AF00045380800DD080800850408003D18080066
:103B000008B5024B9847012008BD00BF410C0800D2
:103B100008B5014B984708BDA10C0800704700BFCD
:103B2000704700BF704700BF704700BF70B50F4EB1
:103B30000F4D761BB61018BF002405D0013455F880
:103B4000043B9847A642F9D10A4E0B4D00F05AFAB1
:103B5000761BB61018BF002406D0013455F8043B7C
:103B60009847A642F9D170BD70BD00BF1040080053
:103B7000104008001840080010400800844641EA40
:103B8000000313F0030349D1403A23D30B680360C9
:103B90004B6843608B688360CB68C3600B690361CB
:103BA0004B6943618B698361CB69C3610B6A0362B3
:103BB0004B6A43628B6A8362CB6AC3620B6B03639B
:103BC0004B6B43638B6B8363CB6BC3634030403180
:103BD000403ADBD230320BD30B6803604B68436052
:103BE0008B688360CB68C36010301031103AF3D219
:103BF0000C3205D351F8043B40F8043B043AF9D2A7
:103C0000043208D0D2071CBF11F8013B00F8013B79
:103C100001D30B8803806046704700BF082A13D386
:103C20008B07B1D010F00303AED0C3F10403D21A56
:103C3000DB071CBF11F8013B00F8013BA4D331F8AE
:103C4000023B20F8023B9FE7043AD9D3013A11F82E
:103C5000013B00F8013BF9D20B7803704B784370BD
:103C60008B7883706046704770B4840746D0541ECA
:103C7000002A41D0CDB2034602E0621EE4B31446EE
:103C800003F8015B9A07F8D1032C2ED9CDB245EA8F
:103C900005250F2C45EA054519D9264603F11002E2
:103CA000103E0F2E42F8105C42F80C5C42F8085CA3
:103CB00042F8045C02F11002F2D8A4F1100222F0E2
:103CC0000F0204F00F041032032C13440DD91E46CA
:103CD0002246043A032A46F8045BFAD8221F22F04F
:103CE00003020432134404F003042CB1C9B21C448F
:103CF00003F8011BA342FBD170BC70471446034676
:103D0000C2E700BF80EA010C1CF0030F37D110F0AE
:103D1000030C20F0030021F0030150F8042B08BF2E
:103D200051F8043B0ED08CF0030C6FF07F434FEA48
:103D3000CC0C23FA0CFC51F8043B42EA0C0243EA97
:103D40000C0300BFA2F1013C9A4201BF2CEA020C15
:103D50001CF0803F50F8042B51F8043BF2D04FEA9E
:103D600002604FEA1222012828BFB0EB036F08BFA0
:103D70001B0AF4D003F0FF03000EC01A704710F0C6
:103D8000030F0AD010F8012B11F8013B012A28BFBC
:103D90009A42F4D0A2EB030070474DF8045D50F84E
:103DA000042B01F0030521F0030151F8043B022D1F
:103DB00026D04DD822F07F45B5EB132FA2F1013C60
:103DC0002CEA020C0DD11CF0803C08BF51F8043BDA
:103DD0000AD185EA0205B5EB036F0CD150F8042B2C
:103DE000E8E74FEA13235BE03CF07F4C54D10B78BB
:103DF0004FEA126554E04FEA126503F0FF034FE00B
:103E00004FEA0245A2F1013C4FEA15452CEA020CAB
:103E1000B5EB134F18D11CF0803C08BF51F8043BA0
:103E200007D185EA0205B5EB034F09D150F8042B01
:103E3000E6E75FEA0C4C2FD10B884FEA12452FE0E2
:103E40004FEA03434FEA12454FEA134328E000BF0D
:103E500002F0FF05B5EB136FA2F1013C2CEA020C56
:103E60000DD11CF0803C08BF51F8043B0AD185EA13
:103E70000205B5EB032F0AD150F8042BE8E74FEA0F
:103E800013630DE012F0FF0F06D051F8043B4FEA28
:103E9000122523F07F4303E04FF0000020BC704761
:103EA00005F0FF0203F0FF00012828BF904204BF85
:103EB0002D0A1B0AF4D0A2EB000020BC704700BF03
:103EC000024B13B1024800F005B870470000000033
:103ED000E13E0800002301461A46184600F014B8D7
:103EE00038B5074D074C2C1BA41005D0013C55F8E4
:103EF000043D9847002CF9D1BDE8384000F08CB85B
:103F000028400800244008002DE9F047254C0646CB
:103F100025688846D5F8484192469946C4B36068FA
:103F20001F2817DC411C76B104EB8003C3F888A07E
:103F3000D4F88851012282401543022EC4F88851DA
:103F4000C3F808911ED0831C6160002044F82380D0
:103F5000BDE8F087144B03B34FF4C870AFF3008093
:103F60000446D0B1D5F84831002784E888003846A7
:103F7000C5F848410121C4F88871C4F88C71002E3D
:103F8000E1D0D1E7D4F88C311A43C4F88C21DAE7B8
:103F900005F5A674C5F84841C1E74FF0FF30BDE80C
:103FA000F08700BF00400800000000004949435F5F
:103FB000312000005350495F3020000055415254D9
:103FC00030200000000000000000000000AAAAAAA3
:103FD000AAAAAAAAAAEEEEEEEEEEEEEEEEFEFFFF23
:103FE000FFFFFFFFFFFFFFFFFF7FBFDFEFF7FBFDDF
:103FF000FC7EBFDFEFF7FBFD7E000000430000000A
:1040000080020720F8B500BFF8BC08BC9E46704788
:10401000C13E080019010800F8B500BFF8BC08BC93
:084020009E467047F500080000
:10402800BFF35F8F0138FBD1704700BF4FF4806347
:10403800204A136002F5007213601F4B1B6A13F0CD
:10404800807F07D11D4A1C4B1A621A46936E13F0E3
:10405800010FFBD01A4A184B1A621A46936E13F4D2
:10406800803FFBD0144A136B23F0030343F0010392
:104078001363936E13F0080FFBD0124A0E4B9A622B
:104088001A46936E13F0020FFBD011220A4B1A63E3
:104098001A46936E13F0080FFBD01222064B1A63D0
:1040A8001A46936E13F0080FFBD0074A074B1A60A5
:1040B800704700BF000A0E4000060E40090837008E
:1040C80009083701013F0D2000BD010578020720CE
:1040D8001B4B984206D800231A4A136002F5007257
:1040E80013607047184B984207D84FF48073154AED
:1040F800136002F5007213607047144B984207D89A
:104108004FF400730F4A136002F500721360704792
:104118000F4B984207D84FF440730A4A136002F5D0
:104128000072136070470B4B984294BF4FF4806342
:104138004FF4A063034A136002F5007213607047DE
:10414800BFEA2101000A0E407FF0FA02FF8FD00378
:10415800FFB3C4047F4A5D05C5120800A910080012
:10416800AD0D0800B10D0800B50F0800C90D080015
:104178009D0D0800D1100800B10D080000000000D6
:10418800434443205669727475616C20436F6D0017
:1041980041544D454C2041534600000000030000A7
:1041A8000000000000000000000000000000000007
:1041B80000000000000000000000000004030904E3
:1041C800A80107201002072009024300020100C0CD
:1041D8003209040000010202010005240010010454
:1041E80024020205240600010524010301070583B2
:1041F8000340001009040100020A000000070581BD
:104208000200020007050202000200002002072047
:10421800180207202002072004020720A001072017
:10422800000000000A060002020000400100000031
:104238004C0107203801072034020720100207200C
:104248001201000202000040EB03042400010102F5
:104258000001000009024300020100C03209040005
:1042680000010202010005240010010424020205D5
:1042780024060001052401030107058303400010FB
:1042880009040100020A000000070581024000003D
:10429800070502024000000100093D00000000007F
:1042A800000000006C050720D40507203C06072005
:1042B80000000000000000000000000000000000F6
:1042C80000000000000000000000000000000000E6
:1042D80000000000FC3F0800000000000000000093
:1042E80000000000000000000000000000000000C6
:1042F80000000000000000000000000000000000B6
:1043080000000000000000000000000000000000A5
:104318000000000000000000000000000000000095
:104328000000000000000000000000000000000085
:104338000000000000000000000000000000000075
:104348000000000000000000010000000000000064
:104358000E33CDAB34126DE6ECDE05000B00000029
:104368000000000000000000000000000000000045
:104378000000000000000000000000000000000035
:104388000000000000000000000000000000000025
:104398000000000000000000000000000000000015
:04000003800038E958
:00000001FF
