:0200000280007C
:100000000020082029070800250708002507080008
:100010002507080025070800250708000000000044
:10002000000000000000000000000000250708009C
:100030002507080000000000250708002507080024
:1000400025070800250708002507080025070800E0
:1000500025070800250708002507080025070800D0
:1000600025070800250708005D0308007103080044
:1000700025070800250708002507080025070800B0
:100080002507080025070800F108080025070800D3
:100090004109080025070800250708002507080072
:1000A0002507080025070800250708002507080080
:1000B00025070800250708002507080010B5054C8E
:1000C000237833B9044B13B10448AFF30080012304
:1000D000237010BD4805002000000000500C0800EF
:1000E000084B10B51BB108490848AFF30080084819
:1000F000036803B910BD074B002BFBD0BDE81040CF
:10010000184700BF000000004C050020500C0800FC
:10011000500C08000000000010B51248124B984720
:100120003E20124B9847124CA0470028FCD04FF0BD
:100130008070104B9847104CA0470028FCD00F4B04
:1001400098470F4A0F4B9A620F4CA0470028FCD0EB
:1001500010200E4B98470E4B98470248024B984789
:1001600010BD00BF00D8B805A9000020ED030800AD
:10017000150408003504080025040800550408008B
:10018000013F0F2000040E406504080085030800AD
:10019000D50708004264B1F1805F16D004D8C1B120
:1001A000B1F1006F0AD013E0B1F1405F11D0B1F1AD
:1001B000605F0ED0B1F1205F0AD17047016F036F0D
:1001C0000B4023EA0203036702E0036F1343036754
:1001D00042607047416412F0010F14BF416601662E
:1001E00012F00A0F14BF0162416212F0020F02D036
:1001F000C0F8801004E012F0080F18BFC0F8841097
:1002000041610160704700BF10B44164019C0CB1B2
:10021000416600E001660BB1016500E041650AB18D
:10022000016300E041630161016010BC704700BFE1
:10023000C06C7047806C704770B582B00D46430942
:1002400003F5001303F206735C0201F0F043B3F10F
:10025000205F30D006D8B3F1006F0AD0B3F1805FD1
:1002600018D049E0B3F1405F30D0B3F1605F2DD0DA
:1002700042E000F01F000126864032464FF0006148
:1002800020461F4B984715F0010F14BF666626667F
:10029000012032E000F01F000126864032464FF078
:1002A00080512046164B984715F0010F14BF666623
:1002B0002666012021E000F01F0101262A4606FAE9
:1002C00001F120460F4B9847304616E005F060528A
:1002D00000F01F01012605EA06030093C5F3800321
:1002E000B2F1605F14BF0022012206FA01F120463C
:1002F000054CA047304600E0002002B070BD00BFB2
:1003000095010800D5010800090208002DE9F04117
:10031000044688460E4B9847054620460D4B9847A5
:10032000054013D00C4C04F160062368434508D106
:100330006168294205D0E36840469847636825EA2A
:100340000305B44202D01034002DEED1BDE8F08197
:1003500031020800350208006405002008B50A21B2
:100360000148024B984708BD000C0E400D030800E1
:1003700008B50B210148024B984708BD000E0E40FE
:100380000D030800184A136B23F070031843106321
:10039000936E13F0080F03D009E0013B03D11EE078
:1003A0004FF4006310498A6E12F0080FF5D00E4A20
:1003B000136B23F0030343F002031363906E10F0FA
:1003C000080004D000207047013B03D109E04FF43E
:1003D000006305498A6E12F0080FF5D070470120BE
:1003E00070470120704700BF00040E40084A136A9E
:1003F00023F0030343F45C1343F00103000280B2D3
:1004000003431362936E13F0010FFBD0704700BFDC
:1004100000040E40024B986E00F00100704700BFD0
:1004200000040E40024B986E00F48030704700BF0D
:1004300000040E40064B1B6A10B143F0807301E0CC
:1004400023F0807343F45C13014A1362704700BFCA
:1004500000040E404FF00052014B9A62704700BFFB
:1004600000040E40024B986E00F00200704700BF7F
:1004700000040E401D280ED81F280ED8094B9A697B
:100480000123834093430AD0012303FA00F0054B74
:10049000186100207047012070470020704700203D
:1004A000704700BF00040E4008B51420014B984768
:1004B00008BD00BF75040800436823F4702343603F
:1004C0004368090401F470210B434360704700BF87
:1004D00010B443F6992301E0013B0ED0046914F0F7
:1004E000010FF9D08368406810F0020F1CBFC3F3FE
:1004F000034010700B80002000E0012010BC70470A
:1005000030B443F6992401E0013C11D0056915F09F
:10051000020FF9D0446814F0020F06D0120402F45E
:10052000702211430BB141F08071C160002000E0E6
:10053000012030BC704700BF32B100EB8100036B7B
:1005400043F001030363704700EB8100036B23F06A
:1005500001030363704700BF32B100EB8100036BFE
:1005600043F002030363704700EB8100036B23F049
:1005700002030363704700BF00EB81010B6B23F0A4
:10058000F0030B630B6B1A430A63704741627047B9
:10059000006A7047006BC0B2704700BF416370478C
:1005A0004FF0FF338362036A80230360036B090407
:1005B00001F4FE01816008230360202303601023FF
:1005C0000360704710B54FF40042124B5A604FF071
:1005D00000611320104CA0474FF000611220A0478B
:1005E0004FF000610920A0474FF000610A20A047AA
:1005F0004FF000610D20A0474FF000610E20A04792
:100600004FF000610F20A0474FF000611020A0477D
:1006100010BD00BF50120E403902080010B40C018A
:1006200094420FD91AE0416841F40021416012045C
:1006300002F4E0221A43026200201CE001201AE0CA
:10064000012018E0630803EBC202B2FBF4F2D30806
:100650005C1E4FF6FE718C42E9D9EFE7C9004B08EA
:1006600003EBC202B2FBF1F2D3085C1E4FF6FE713F
:100670008C42E5D8D7E710BC704700BF0A4BC0F8E2
:10068000E4300023436043628362882303602423B1
:1006900003604FF4807303604FF4002303604FF452
:1006A00000330360704700BF0041535570B50546E5
:1006B0000C4616460F4B984700220F4B1A609CB110
:1006C0003246216828460D4B9847024670B961684A
:1006D000A368194323691943E3680B4306490B6078
:1006E00069680B436B6002E0012200E001221046C2
:1006F00070BD00BF7D060800D40500201D0608005F
:1007000040230360704700BF10230360704700BFA1
:10071000436913F0020F1DBFC1F30801C16100203E
:1007200001207047FEE700BF08B51E4B1E4A9A42E3
:1007300003D01E4B1B4A9A4204D31D4B1D4A9A42BA
:100740000FD31AE017491C4B5B1A23F00303043341
:10075000154A134452F8040B41F8040B9A42F9D19C
:10076000EBE7164B164AD21A22F003021A44043B56
:10077000002143F8041B9342FBD1124B23F060424B
:1007800022F07F0210498A6003F16043B3F5804F85
:1007900003D28B6843F000538B600C4B98470C4B93
:1007A0009847FEE700000020500C08004805002094
:1007B000D805002048050020470500204C050020F2
:1007C000DB0500200000080000ED00E0D10A080071
:1007D0004D0A08003E4B1B6B03F00303032B5FD84D
:1007E000DFE803F0020E2B2B3A4B5B6913F0800F0E
:1007F00014BF4FF400424FF4FA42374B1A604FE0F7
:10080000334B1B6A13F0807F03D0344A324B1A609B
:1008100046E0334A304B1A602D4B1B6A03F07003DD
:10082000102B02D0202B04D03AE02E4A2A4B1A601B
:1008300036E02A4A284B1A6032E0254B1B6A13F037
:10084000807F03D0254A244B1A6012E0244A224BB1
:100850001A601F4B1B6A03F07003102B02D0202B71
:1008600004D006E01F4A1C4B1A6002E01B4A1A4BD8
:100870001A60174B1B6B03F00303022B0DD1144AB4
:10088000936A926A1448C3F30A41036801FB033375
:10089000D2B2B3FBF2F3036002E0134A0E4B1A60CC
:1008A0000B4B1B6B03F07003702B07D10A4A1368C4
:1008B0000E49A1FB03135B0813607047044B1B6BCD
:1008C0000549C3F302120B68D3400B60704700BFA9
:1008D00000040E4010120E4018010020001BB7004B
:1008E00000093D0000127A00001C4E0EABAAAAAA15
:1008F00010B50D480D4B9847044610F0020F0AD072
:1009000009480B4B984701460A480B4B984742F25F
:100910001073013BFDD104F49E741C2C03D13121D2
:100920000148064B984710BD00400840910508005B
:100930009505080000000940110708009D05080002
:100940000E4B1B6913F0010F17D010B582B00B4C82
:100950000DF106020DF105012046094B98470023D1
:100960001A469DF805102046064CA0479DF8051034
:100970000548064B984702B010BD70470080004004
:10098000D104080001050800000009401107080013
:1009900010B5134C2046134B984702232360802345
:1009A0002360636823F001036360636843F010030E
:1009B00063600E2120460C4B9847002211462046CA
:1009C0000A4B9847002211462046094B98470022BF
:1009D00011462046074B984701236361236010BDF1
:1009E00000800040A9040800B90408003905080087
:1009F000590508007905080030B587B06C460C4DE4
:100A00000FCD0FC495E8030084E803000D20094BC7
:100A10009847094C094A69462046094B98472046A1
:100A2000084B98472046084B984707B030BD00BF99
:100A30000C0C0800750408000000094000D8B80537
:100A4000AD060800010708000907080008B5174BA4
:100A50009847174B98470A20164CA0470B20A047F1
:100A6000154B98471220A047144DA0212846144B3F
:100A70009847144C4FF48013C4F88030C4F8803188
:100A8000002684F8146323600F4B98474FF48023AB
:100A9000C4F88030C4F8803184F81263236040F6D3
:100AA0003E512846094B9847FEE700BF1901080050
:100AB000C505080075040800F90908000040084051
:100AC000A105080000E100E0910908008D0508007B
:100AD00070B50F4E0F4D761BB61018BF002405D011
:100AE000013455F8043B9847A642F9D10A4E0B4D04
:100AF00000F09CF8761BB61018BF002406D0013415
:100B000055F8043B9847A642F9D170BD70BD00BFAF
:100B1000380C0800380C0800400C0800380C08009D
:100B2000024B13B1024800F005B870470000000006
:100B3000410B0800002301461A46184600F014B87D
:100B400038B5074D074C2C1BA41005D0013C55F8B7
:100B5000043D9847002CF9D1BDE8384000F070B84A
:100B6000500C08004C0C08002DE9F047254C0646B7
:100B700025688846D5F8484192469946C4B36068CE
:100B80001F2817DC411C76B104EB8003C3F888A052
:100B9000D4F88851012282401543022EC4F88851AE
:100BA000C3F808911ED0831C6160002044F82380A4
:100BB000BDE8F087144B03B34FF4C870AFF3008067
:100BC0000446D0B1D5F84831002784E8880038467B
:100BD000C5F848410121C4F88871C4F88C71002E11
:100BE000E1D0D1E7D4F88C311A43C4F88C21DAE78C
:100BF00005F5A674C5F84841C1E74FF0FF30BDE8E0
:100C0000F08700BF280C08000000000000C20100AF
:100C1000C00000000008000000000000000000000C
:100C2000000000004300000020010020F8B500BFD4
:100C3000F8BC08BC9E467047210B0800E100080084
:100C4000F8B500BFF8BC08BC9E467047BD00080060
:100C50004FF48063214A136002F50072136003F1C0
:100C6000804303F560231B6A13F0807F07D11C4A81
:100C70001C4B1A621A46936E13F0010FFBD01A4AEE
:100C8000184B1A621A46936E13F4803FFBD0154A34
:100C9000136B23F0030343F001031363936E13F00C
:100CA000080FFBD0114A0F4B9A621A46936E13F04D
:100CB000020FFBD011220B4B1A631A46936E13F0EE
:100CC000080FFBD01222074B1A631A46936E13F0DB
:100CD000080FFBD0064A074B1A60704700080E4009
:100CE0000908370000040E4009083701013F0F20B2
:100CF00000D8B80518010020164B984206D80023EA
:100D0000154A136002F5007213607047134B984246
:100D100007D84FF48073104A136002F50072136015
:100D200070470F4B984207D84FF400730A4A13607C
:100D300002F50072136070470A4B984294BF4FF45B
:100D400040734FF48063044A136002F5007213602D
:100D5000704700BFFF356E0100080E40FF59620268
:100D6000FFA14A04FFBC010500093D00000000008E
:100D7000000000000C04002074040020DC040020AB
:100D80000000000000000000000000000000000063
:100D90000000000000000000000000000000000053
:100DA00000000000240C080000000000000000000B
:100DB0000000000000000000000000000000000033
:100DC0000000000000000000000000000000000023
:100DD0000000000000000000000000000000000013
:100DE0000000000000000000000000000000000003
:100DF00000000000000000000000000000000000F3
:100E000000000000000000000000000000000000E2
:100E100000000000000000000100000000000000D1
:100E20000E33CDAB34126DE6ECDE05000B00000096
:100E300000000000000000000000000000000000B2
:100E400000000000000000000000000000000000A2
:100E50000000000000000000000000000000000092
:100E60000000000000000000000000000000000082
:040000038000072949
:00000001FF
